{
  "contractName": "HCL",
  "abi": [
    {
      "inputs": [],
      "stateMutability": "nonpayable",
      "type": "constructor"
    },
    {
      "anonymous": false,
      "inputs": [
        {
          "indexed": true,
          "internalType": "address",
          "name": "owner",
          "type": "address"
        },
        {
          "indexed": true,
          "internalType": "address",
          "name": "spender",
          "type": "address"
        },
        {
          "indexed": false,
          "internalType": "uint256",
          "name": "value",
          "type": "uint256"
        }
      ],
      "name": "Approval",
      "type": "event"
    },
    {
      "anonymous": false,
      "inputs": [
        {
          "indexed": true,
          "internalType": "address",
          "name": "previousOwner",
          "type": "address"
        },
        {
          "indexed": true,
          "internalType": "address",
          "name": "newOwner",
          "type": "address"
        }
      ],
      "name": "OwnershipTransferred",
      "type": "event"
    },
    {
      "anonymous": false,
      "inputs": [
        {
          "indexed": true,
          "internalType": "address",
          "name": "from",
          "type": "address"
        },
        {
          "indexed": true,
          "internalType": "address",
          "name": "to",
          "type": "address"
        },
        {
          "indexed": false,
          "internalType": "uint256",
          "name": "value",
          "type": "uint256"
        }
      ],
      "name": "Transfer",
      "type": "event"
    },
    {
      "inputs": [
        {
          "internalType": "address",
          "name": "owner",
          "type": "address"
        },
        {
          "internalType": "address",
          "name": "spender",
          "type": "address"
        }
      ],
      "name": "allowance",
      "outputs": [
        {
          "internalType": "uint256",
          "name": "",
          "type": "uint256"
        }
      ],
      "stateMutability": "view",
      "type": "function"
    },
    {
      "inputs": [
        {
          "internalType": "address",
          "name": "spender",
          "type": "address"
        },
        {
          "internalType": "uint256",
          "name": "amount",
          "type": "uint256"
        }
      ],
      "name": "approve",
      "outputs": [
        {
          "internalType": "bool",
          "name": "",
          "type": "bool"
        }
      ],
      "stateMutability": "nonpayable",
      "type": "function"
    },
    {
      "inputs": [
        {
          "internalType": "address",
          "name": "account",
          "type": "address"
        }
      ],
      "name": "balanceOf",
      "outputs": [
        {
          "internalType": "uint256",
          "name": "",
          "type": "uint256"
        }
      ],
      "stateMutability": "view",
      "type": "function"
    },
    {
      "inputs": [],
      "name": "decimals",
      "outputs": [
        {
          "internalType": "uint8",
          "name": "",
          "type": "uint8"
        }
      ],
      "stateMutability": "view",
      "type": "function"
    },
    {
      "inputs": [
        {
          "internalType": "address",
          "name": "spender",
          "type": "address"
        },
        {
          "internalType": "uint256",
          "name": "subtractedValue",
          "type": "uint256"
        }
      ],
      "name": "decreaseAllowance",
      "outputs": [
        {
          "internalType": "bool",
          "name": "",
          "type": "bool"
        }
      ],
      "stateMutability": "nonpayable",
      "type": "function"
    },
    {
      "inputs": [
        {
          "internalType": "address",
          "name": "spender",
          "type": "address"
        },
        {
          "internalType": "uint256",
          "name": "addedValue",
          "type": "uint256"
        }
      ],
      "name": "increaseAllowance",
      "outputs": [
        {
          "internalType": "bool",
          "name": "",
          "type": "bool"
        }
      ],
      "stateMutability": "nonpayable",
      "type": "function"
    },
    {
      "inputs": [],
      "name": "name",
      "outputs": [
        {
          "internalType": "string",
          "name": "",
          "type": "string"
        }
      ],
      "stateMutability": "view",
      "type": "function"
    },
    {
      "inputs": [],
      "name": "owner",
      "outputs": [
        {
          "internalType": "address",
          "name": "",
          "type": "address"
        }
      ],
      "stateMutability": "view",
      "type": "function"
    },
    {
      "inputs": [],
      "name": "renounceOwnership",
      "outputs": [],
      "stateMutability": "nonpayable",
      "type": "function"
    },
    {
      "inputs": [],
      "name": "symbol",
      "outputs": [
        {
          "internalType": "string",
          "name": "",
          "type": "string"
        }
      ],
      "stateMutability": "view",
      "type": "function"
    },
    {
      "inputs": [],
      "name": "totalSupply",
      "outputs": [
        {
          "internalType": "uint256",
          "name": "",
          "type": "uint256"
        }
      ],
      "stateMutability": "view",
      "type": "function"
    },
    {
      "inputs": [
        {
          "internalType": "address",
          "name": "to",
          "type": "address"
        },
        {
          "internalType": "uint256",
          "name": "amount",
          "type": "uint256"
        }
      ],
      "name": "transfer",
      "outputs": [
        {
          "internalType": "bool",
          "name": "",
          "type": "bool"
        }
      ],
      "stateMutability": "nonpayable",
      "type": "function"
    },
    {
      "inputs": [
        {
          "internalType": "address",
          "name": "from",
          "type": "address"
        },
        {
          "internalType": "address",
          "name": "to",
          "type": "address"
        },
        {
          "internalType": "uint256",
          "name": "amount",
          "type": "uint256"
        }
      ],
      "name": "transferFrom",
      "outputs": [
        {
          "internalType": "bool",
          "name": "",
          "type": "bool"
        }
      ],
      "stateMutability": "nonpayable",
      "type": "function"
    },
    {
      "inputs": [
        {
          "internalType": "address",
          "name": "newOwner",
          "type": "address"
        }
      ],
      "name": "transferOwnership",
      "outputs": [],
      "stateMutability": "nonpayable",
      "type": "function"
    },
    {
      "inputs": [
        {
          "internalType": "address",
          "name": "account",
          "type": "address"
        },
        {
          "internalType": "uint256",
          "name": "amount",
          "type": "uint256"
        },
        {
          "internalType": "string",
          "name": "role",
          "type": "string"
        }
      ],
      "name": "setAllocation",
      "outputs": [],
      "stateMutability": "nonpayable",
      "type": "function"
    },
    {
      "inputs": [
        {
          "internalType": "address",
          "name": "account",
          "type": "address"
        }
      ],
      "name": "getAllocation",
      "outputs": [
        {
          "components": [
            {
              "internalType": "address",
              "name": "account",
              "type": "address"
            },
            {
              "internalType": "uint256",
              "name": "amount",
              "type": "uint256"
            },
            {
              "internalType": "string",
              "name": "role",
              "type": "string"
            },
            {
              "internalType": "bool",
              "name": "isSet",
              "type": "bool"
            }
          ],
          "internalType": "struct HCL.Allocation",
          "name": "",
          "type": "tuple"
        }
      ],
      "stateMutability": "view",
      "type": "function"
    },
    {
      "inputs": [],
      "name": "getAllocations",
      "outputs": [
        {
          "components": [
            {
              "internalType": "address",
              "name": "account",
              "type": "address"
            },
            {
              "internalType": "uint256",
              "name": "amount",
              "type": "uint256"
            },
            {
              "internalType": "string",
              "name": "role",
              "type": "string"
            },
            {
              "internalType": "bool",
              "name": "isSet",
              "type": "bool"
            }
          ],
          "internalType": "struct HCL.Allocation[]",
          "name": "",
          "type": "tuple[]"
        }
      ],
      "stateMutability": "view",
      "type": "function"
    },
    {
      "inputs": [
        {
          "internalType": "address",
          "name": "account",
          "type": "address"
        },
        {
          "internalType": "uint256",
          "name": "amount",
          "type": "uint256"
        },
        {
          "internalType": "uint256",
          "name": "start",
          "type": "uint256"
        },
        {
          "internalType": "uint256[]",
          "name": "timelock",
          "type": "uint256[]"
        }
      ],
      "name": "setVesting",
      "outputs": [],
      "stateMutability": "nonpayable",
      "type": "function"
    },
    {
      "inputs": [
        {
          "internalType": "address",
          "name": "account",
          "type": "address"
        }
      ],
      "name": "getVesting",
      "outputs": [
        {
          "components": [
            {
              "internalType": "address",
              "name": "account",
              "type": "address"
            },
            {
              "internalType": "uint256",
              "name": "amount",
              "type": "uint256"
            },
            {
              "internalType": "uint256",
              "name": "start",
              "type": "uint256"
            },
            {
              "internalType": "uint256[]",
              "name": "timelock",
              "type": "uint256[]"
            },
            {
              "internalType": "string",
              "name": "role",
              "type": "string"
            },
            {
              "internalType": "bool",
              "name": "isSet",
              "type": "bool"
            }
          ],
          "internalType": "struct HCL.Vesting",
          "name": "",
          "type": "tuple"
        }
      ],
      "stateMutability": "view",
      "type": "function"
    },
    {
      "inputs": [],
      "name": "getVestings",
      "outputs": [
        {
          "components": [
            {
              "internalType": "address",
              "name": "account",
              "type": "address"
            },
            {
              "internalType": "uint256",
              "name": "amount",
              "type": "uint256"
            },
            {
              "internalType": "uint256",
              "name": "start",
              "type": "uint256"
            },
            {
              "internalType": "uint256[]",
              "name": "timelock",
              "type": "uint256[]"
            },
            {
              "internalType": "string",
              "name": "role",
              "type": "string"
            },
            {
              "internalType": "bool",
              "name": "isSet",
              "type": "bool"
            }
          ],
          "internalType": "struct HCL.Vesting[]",
          "name": "",
          "type": "tuple[]"
        }
      ],
      "stateMutability": "view",
      "type": "function"
    },
    {
      "inputs": [
        {
          "internalType": "address",
          "name": "account",
          "type": "address"
        }
      ],
      "name": "getLockedBalance",
      "outputs": [
        {
          "internalType": "uint256",
          "name": "",
          "type": "uint256"
        }
      ],
      "stateMutability": "view",
      "type": "function"
    }
  ],
  "bytecode": "0x60806040523480156200001157600080fd5b506040518060400160405280600a81526020017f4869776b636972636c65000000000000000000000000000000000000000000008152506040518060400160405280600381526020017f48434c000000000000000000000000000000000000000000000000000000000081525081600390816200008f919062000935565b508060049081620000a1919062000935565b505050620000c4620000b86200011960201b60201c565b6200012160201b60201c565b62000113620000d86200011960201b60201c565b620000e8620001e760201b60201c565b600a620000f6919062000bac565b639502f90062000107919062000bfd565b620001f060201b60201c565b62000eea565b600033905090565b6000600560009054906101000a900473ffffffffffffffffffffffffffffffffffffffff16905081600560006101000a81548173ffffffffffffffffffffffffffffffffffffffff021916908373ffffffffffffffffffffffffffffffffffffffff1602179055508173ffffffffffffffffffffffffffffffffffffffff168173ffffffffffffffffffffffffffffffffffffffff167f8be0079c531659141344cd1fd0a4f28419497f9722a3daafe3b4186f6b6457e060405160405180910390a35050565b60006012905090565b600073ffffffffffffffffffffffffffffffffffffffff168273ffffffffffffffffffffffffffffffffffffffff160362000262576040517f08c379a0000000000000000000000000000000000000000000000000000000008152600401620002599062000ca9565b60405180910390fd5b62000276600083836200035d60201b60201c565b80600260008282546200028a919062000ccb565b92505081905550806000808473ffffffffffffffffffffffffffffffffffffffff1673ffffffffffffffffffffffffffffffffffffffff168152602001908152602001600020600082825401925050819055508173ffffffffffffffffffffffffffffffffffffffff16600073ffffffffffffffffffffffffffffffffffffffff167fddf252ad1be2c89b69c2b068fc378daa952ba7f163c4a11628f55a4df523b3ef836040516200033d919062000d17565b60405180910390a362000359600083836200042a60201b60201c565b5050565b620003708383836200042f60201b60201c565b600073ffffffffffffffffffffffffffffffffffffffff168373ffffffffffffffffffffffffffffffffffffffff161462000425576000620003b8846200043460201b60201c565b90506000620003cd856200067360201b60201c565b9050828282620003de919062000d34565b101562000422576040517f08c379a0000000000000000000000000000000000000000000000000000000008152600401620004199062000de5565b60405180910390fd5b50505b505050565b505050565b505050565b600060011515600860008473ffffffffffffffffffffffffffffffffffffffff1673ffffffffffffffffffffffffffffffffffffffff16815260200190815260200160002060050160009054906101000a900460ff161515146200049c57600090506200066e565b6000600860008473ffffffffffffffffffffffffffffffffffffffff1673ffffffffffffffffffffffffffffffffffffffff16815260200190815260200160002060030180549050600860008573ffffffffffffffffffffffffffffffffffffffff1673ffffffffffffffffffffffffffffffffffffffff1681526020019081526020016000206001015462000533919062000e36565b90506000805b600860008673ffffffffffffffffffffffffffffffffffffffff1673ffffffffffffffffffffffffffffffffffffffff16815260200190815260200160002060030180549050811015620006185742600860008773ffffffffffffffffffffffffffffffffffffffff1673ffffffffffffffffffffffffffffffffffffffff1681526020019081526020016000206003018281548110620005df57620005de62000e6e565b5b9060005260206000200154101562000602578282620005ff919062000ccb565b91505b80806200060f9062000e9d565b91505062000539565b5080600860008673ffffffffffffffffffffffffffffffffffffffff1673ffffffffffffffffffffffffffffffffffffffff1681526020019081526020016000206001015462000669919062000d34565b925050505b919050565b60008060008373ffffffffffffffffffffffffffffffffffffffff1673ffffffffffffffffffffffffffffffffffffffff168152602001908152602001600020549050919050565b600081519050919050565b7f4e487b7100000000000000000000000000000000000000000000000000000000600052604160045260246000fd5b7f4e487b7100000000000000000000000000000000000000000000000000000000600052602260045260246000fd5b600060028204905060018216806200073d57607f821691505b602082108103620007535762000752620006f5565b5b50919050565b60008190508160005260206000209050919050565b60006020601f8301049050919050565b600082821b905092915050565b600060088302620007bd7fffffffffffffffffffffffffffffffffffffffffffffffffffffffffffffffff826200077e565b620007c986836200077e565b95508019841693508086168417925050509392505050565b6000819050919050565b6000819050919050565b600062000816620008106200080a84620007e1565b620007eb565b620007e1565b9050919050565b6000819050919050565b6200083283620007f5565b6200084a62000841826200081d565b8484546200078b565b825550505050565b600090565b6200086162000852565b6200086e81848462000827565b505050565b5b8181101562000896576200088a60008262000857565b60018101905062000874565b5050565b601f821115620008e557620008af8162000759565b620008ba846200076e565b81016020851015620008ca578190505b620008e2620008d9856200076e565b83018262000873565b50505b505050565b600082821c905092915050565b60006200090a60001984600802620008ea565b1980831691505092915050565b6000620009258383620008f7565b9150826002028217905092915050565b6200094082620006bb565b67ffffffffffffffff8111156200095c576200095b620006c6565b5b62000968825462000724565b620009758282856200089a565b600060209050601f831160018114620009ad576000841562000998578287015190505b620009a4858262000917565b86555062000a14565b601f198416620009bd8662000759565b60005b82811015620009e757848901518255600182019150602085019450602081019050620009c0565b8683101562000a07578489015162000a03601f891682620008f7565b8355505b6001600288020188555050505b505050505050565b7f4e487b7100000000000000000000000000000000000000000000000000000000600052601160045260246000fd5b60008160011c9050919050565b6000808291508390505b600185111562000aaa5780860481111562000a825762000a8162000a1c565b5b600185161562000a925780820291505b808102905062000aa28562000a4b565b945062000a62565b94509492505050565b60008262000ac5576001905062000b98565b8162000ad5576000905062000b98565b816001811462000aee576002811462000af95762000b2f565b600191505062000b98565b60ff84111562000b0e5762000b0d62000a1c565b5b8360020a91508482111562000b285762000b2762000a1c565b5b5062000b98565b5060208310610133831016604e8410600b841016171562000b695782820a90508381111562000b635762000b6262000a1c565b5b62000b98565b62000b78848484600162000a58565b9250905081840481111562000b925762000b9162000a1c565b5b81810290505b9392505050565b600060ff82169050919050565b600062000bb982620007e1565b915062000bc68362000b9f565b925062000bf57fffffffffffffffffffffffffffffffffffffffffffffffffffffffffffffffff848462000ab3565b905092915050565b600062000c0a82620007e1565b915062000c1783620007e1565b925082820262000c2781620007e1565b9150828204841483151762000c415762000c4062000a1c565b5b5092915050565b600082825260208201905092915050565b7f45524332303a206d696e7420746f20746865207a65726f206164647265737300600082015250565b600062000c91601f8362000c48565b915062000c9e8262000c59565b602082019050919050565b6000602082019050818103600083015262000cc48162000c82565b9050919050565b600062000cd882620007e1565b915062000ce583620007e1565b925082820190508082111562000d005762000cff62000a1c565b5b92915050565b62000d1181620007e1565b82525050565b600060208201905062000d2e600083018462000d06565b92915050565b600062000d4182620007e1565b915062000d4e83620007e1565b925082820390508181111562000d695762000d6862000a1c565b5b92915050565b7f48434c3a205472616e7366657220616d6f756e74206578656564732062616c6160008201527f6e6365206f7220736f6d6520616d6f756e747320617265206c6f636b65642e00602082015250565b600062000dcd603f8362000c48565b915062000dda8262000d6f565b604082019050919050565b6000602082019050818103600083015262000e008162000dbe565b9050919050565b7f4e487b7100000000000000000000000000000000000000000000000000000000600052601260045260246000fd5b600062000e4382620007e1565b915062000e5083620007e1565b92508262000e635762000e6262000e07565b5b828204905092915050565b7f4e487b7100000000000000000000000000000000000000000000000000000000600052603260045260246000fd5b600062000eaa82620007e1565b91507fffffffffffffffffffffffffffffffffffffffffffffffffffffffffffffffff820362000edf5762000ede62000a1c565b5b600182019050919050565b61399a8062000efa6000396000f3fe608060405234801561001057600080fd5b50600436106101375760003560e01c806370a08231116100b8578063a9059cbb1161007c578063a9059cbb14610354578063c408689314610384578063cc49ede7146103b4578063dd62ed3e146103e4578063f2fde38b14610414578063fa9a68dc1461043057610137565b806370a08231146102ae578063715018a6146102de5780638da5cb5b146102e857806395d89b4114610306578063a457c2d71461032457610137565b8063313ce567116100ff578063313ce5671461020857806334766c8f146102265780633950935114610242578063626a9b261461027257806365ed6e231461029057610137565b806306fdde031461013c578063095ea7b31461015a5780630e0229231461018a57806318160ddd146101ba57806323b872dd146101d8575b600080fd5b61014461044c565b60405161015191906121b2565b60405180910390f35b610174600480360381019061016f919061227c565b6104de565b60405161018191906122d7565b60405180910390f35b6101a4600480360381019061019f91906122f2565b610501565b6040516101b191906123f9565b60405180910390f35b6101c2610667565b6040516101cf919061242a565b60405180910390f35b6101f260048036038101906101ed9190612445565b610671565b6040516101ff91906122d7565b60405180910390f35b6102106106a0565b60405161021d91906124b4565b60405180910390f35b610240600480360381019061023b9190612604565b6106a9565b005b61025c6004803603810190610257919061227c565b610984565b60405161026991906122d7565b60405180910390f35b61027a6109bb565b6040516102879190612874565b60405180910390f35b610298610c66565b6040516102a591906129bb565b60405180910390f35b6102c860048036038101906102c391906122f2565b610eaf565b6040516102d5919061242a565b60405180910390f35b6102e6610ef7565b005b6102f0610f0b565b6040516102fd91906129ec565b60405180910390f35b61030e610f35565b60405161031b91906121b2565b60405180910390f35b61033e6004803603810190610339919061227c565b610fc7565b60405161034b91906122d7565b60405180910390f35b61036e6004803603810190610369919061227c565b61103e565b60405161037b91906122d7565b60405180910390f35b61039e600480360381019061039991906122f2565b611061565b6040516103ab919061242a565b60405180910390f35b6103ce60048036038101906103c991906122f2565b611290565b6040516103db9190612a97565b60405180910390f35b6103fe60048036038101906103f99190612ab9565b611458565b60405161040b919061242a565b60405180910390f35b61042e600480360381019061042991906122f2565b6114df565b005b61044a60048036038101906104459190612bc1565b611562565b005b60606003805461045b90612c73565b80601f016020809104026020016040519081016040528092919081815260200182805461048790612c73565b80156104d45780601f106104a9576101008083540402835291602001916104d4565b820191906000526020600020905b8154815290600101906020018083116104b757829003601f168201915b5050505050905090565b6000806104e961195a565b90506104f6818585611962565b600191505092915050565b61050961202a565b600660008373ffffffffffffffffffffffffffffffffffffffff1673ffffffffffffffffffffffffffffffffffffffff1681526020019081526020016000206040518060800160405290816000820160009054906101000a900473ffffffffffffffffffffffffffffffffffffffff1673ffffffffffffffffffffffffffffffffffffffff1673ffffffffffffffffffffffffffffffffffffffff168152602001600182015481526020016002820180546105c390612c73565b80601f01602080910402602001604051908101604052809291908181526020018280546105ef90612c73565b801561063c5780601f106106115761010080835404028352916020019161063c565b820191906000526020600020905b81548152906001019060200180831161061f57829003601f168201915b505050505081526020016003820160009054906101000a900460ff1615151515815250509050919050565b6000600254905090565b60008061067c61195a565b9050610689858285611b2b565b610694858585611bb7565b60019150509392505050565b60006012905090565b6106b1611e2d565b600073ffffffffffffffffffffffffffffffffffffffff168373ffffffffffffffffffffffffffffffffffffffff1603610720576040517f08c379a000000000000000000000000000000000000000000000000000000000815260040161071790612d16565b60405180910390fd5b600061072a61195a565b90508261073682610eaf565b1015610777576040517f08c379a000000000000000000000000000000000000000000000000000000000815260040161076e90612da8565b60405180910390fd5b60011515600660008673ffffffffffffffffffffffffffffffffffffffff1673ffffffffffffffffffffffffffffffffffffffff16815260200190815260200160002060030160009054906101000a900460ff1615150361080d576040517f08c379a000000000000000000000000000000000000000000000000000000000815260040161080490612e3a565b60405180910390fd5b60405180608001604052808573ffffffffffffffffffffffffffffffffffffffff16815260200184815260200183815260200160011515815250600660008673ffffffffffffffffffffffffffffffffffffffff1673ffffffffffffffffffffffffffffffffffffffff16815260200190815260200160002060008201518160000160006101000a81548173ffffffffffffffffffffffffffffffffffffffff021916908373ffffffffffffffffffffffffffffffffffffffff1602179055506020820151816001015560408201518160020190816108ec9190613006565b5060608201518160030160006101000a81548160ff0219169083151502179055509050506007849080600181540180825580915050600190039060005260206000200160009091909190916101000a81548173ffffffffffffffffffffffffffffffffffffffff021916908373ffffffffffffffffffffffffffffffffffffffff16021790555061097d848461103e565b5050505050565b60008061098f61195a565b90506109b08185856109a18589611458565b6109ab9190613107565b611962565b600191505092915050565b6060600060098054905067ffffffffffffffff8111156109de576109dd6124d9565b5b604051908082528060200260200182016040528015610a1757816020015b610a0461206a565b8152602001906001900390816109fc5790505b50905060005b600980549050811015610c5e57600060098281548110610a4057610a3f61313b565b5b9060005260206000200160009054906101000a900473ffffffffffffffffffffffffffffffffffffffff1690506000600860008373ffffffffffffffffffffffffffffffffffffffff1673ffffffffffffffffffffffffffffffffffffffff1681526020019081526020016000209050806040518060c00160405290816000820160009054906101000a900473ffffffffffffffffffffffffffffffffffffffff1673ffffffffffffffffffffffffffffffffffffffff1673ffffffffffffffffffffffffffffffffffffffff168152602001600182015481526020016002820154815260200160038201805480602002602001604051908101604052809291908181526020018280548015610b7557602002820191906000526020600020905b815481526020019060010190808311610b61575b50505050508152602001600482018054610b8e90612c73565b80601f0160208091040260200160405190810160405280929190818152602001828054610bba90612c73565b8015610c075780601f10610bdc57610100808354040283529160200191610c07565b820191906000526020600020905b815481529060010190602001808311610bea57829003601f168201915b505050505081526020016005820160009054906101000a900460ff161515151581525050848481518110610c3e57610c3d61313b565b5b602002602001018190525050508080610c569061316a565b915050610a1d565b508091505090565b6060600060078054905067ffffffffffffffff811115610c8957610c886124d9565b5b604051908082528060200260200182016040528015610cc257816020015b610caf61202a565b815260200190600190039081610ca75790505b50905060005b600780549050811015610ea757600060078281548110610ceb57610cea61313b565b5b9060005260206000200160009054906101000a900473ffffffffffffffffffffffffffffffffffffffff1690506000600660008373ffffffffffffffffffffffffffffffffffffffff1673ffffffffffffffffffffffffffffffffffffffff1681526020019081526020016000209050806040518060800160405290816000820160009054906101000a900473ffffffffffffffffffffffffffffffffffffffff1673ffffffffffffffffffffffffffffffffffffffff1673ffffffffffffffffffffffffffffffffffffffff16815260200160018201548152602001600282018054610dd790612c73565b80601f0160208091040260200160405190810160405280929190818152602001828054610e0390612c73565b8015610e505780601f10610e2557610100808354040283529160200191610e50565b820191906000526020600020905b815481529060010190602001808311610e3357829003601f168201915b505050505081526020016003820160009054906101000a900460ff161515151581525050848481518110610e8757610e8661313b565b5b602002602001018190525050508080610e9f9061316a565b915050610cc8565b508091505090565b60008060008373ffffffffffffffffffffffffffffffffffffffff1673ffffffffffffffffffffffffffffffffffffffff168152602001908152602001600020549050919050565b610eff611e2d565b610f096000611eab565b565b6000600560009054906101000a900473ffffffffffffffffffffffffffffffffffffffff16905090565b606060048054610f4490612c73565b80601f0160208091040260200160405190810160405280929190818152602001828054610f7090612c73565b8015610fbd5780601f10610f9257610100808354040283529160200191610fbd565b820191906000526020600020905b815481529060010190602001808311610fa057829003601f168201915b5050505050905090565b600080610fd261195a565b90506000610fe08286611458565b905083811015611025576040517f08c379a000000000000000000000000000000000000000000000000000000000815260040161101c90613224565b60405180910390fd5b6110328286868403611962565b60019250505092915050565b60008061104961195a565b9050611056818585611bb7565b600191505092915050565b600060011515600860008473ffffffffffffffffffffffffffffffffffffffff1673ffffffffffffffffffffffffffffffffffffffff16815260200190815260200160002060050160009054906101000a900460ff161515146110c7576000905061128b565b6000600860008473ffffffffffffffffffffffffffffffffffffffff1673ffffffffffffffffffffffffffffffffffffffff16815260200190815260200160002060030180549050600860008573ffffffffffffffffffffffffffffffffffffffff1673ffffffffffffffffffffffffffffffffffffffff1681526020019081526020016000206001015461115c9190613273565b90506000805b600860008673ffffffffffffffffffffffffffffffffffffffff1673ffffffffffffffffffffffffffffffffffffffff168152602001908152602001600020600301805490508110156112375742600860008773ffffffffffffffffffffffffffffffffffffffff1673ffffffffffffffffffffffffffffffffffffffff16815260200190815260200160002060030182815481106112045761120361313b565b5b906000526020600020015410156112245782826112219190613107565b91505b808061122f9061316a565b915050611162565b5080600860008673ffffffffffffffffffffffffffffffffffffffff1673ffffffffffffffffffffffffffffffffffffffff1681526020019081526020016000206001015461128691906132a4565b925050505b919050565b61129861206a565b600860008373ffffffffffffffffffffffffffffffffffffffff1673ffffffffffffffffffffffffffffffffffffffff1681526020019081526020016000206040518060c00160405290816000820160009054906101000a900473ffffffffffffffffffffffffffffffffffffffff1673ffffffffffffffffffffffffffffffffffffffff1673ffffffffffffffffffffffffffffffffffffffff16815260200160018201548152602001600282015481526020016003820180548060200260200160405190810160405280929190818152602001828054801561139b57602002820191906000526020600020905b815481526020019060010190808311611387575b505050505081526020016004820180546113b490612c73565b80601f01602080910402602001604051908101604052809291908181526020018280546113e090612c73565b801561142d5780601f106114025761010080835404028352916020019161142d565b820191906000526020600020905b81548152906001019060200180831161141057829003601f168201915b505050505081526020016005820160009054906101000a900460ff1615151515815250509050919050565b6000600160008473ffffffffffffffffffffffffffffffffffffffff1673ffffffffffffffffffffffffffffffffffffffff16815260200190815260200160002060008373ffffffffffffffffffffffffffffffffffffffff1673ffffffffffffffffffffffffffffffffffffffff16815260200190815260200160002054905092915050565b6114e7611e2d565b600073ffffffffffffffffffffffffffffffffffffffff168173ffffffffffffffffffffffffffffffffffffffff1603611556576040517f08c379a000000000000000000000000000000000000000000000000000000000815260040161154d9061334a565b60405180910390fd5b61155f81611eab565b50565b600061156c61195a565b905060011515600660008373ffffffffffffffffffffffffffffffffffffffff1673ffffffffffffffffffffffffffffffffffffffff16815260200190815260200160002060030160009054906101000a900460ff16151514611604576040517f08c379a00000000000000000000000000000000000000000000000000000000081526004016115fb906133dc565b60405180910390fd5b8361160e82610eaf565b101561164f576040517f08c379a00000000000000000000000000000000000000000000000000000000081526004016116469061346e565b60405180910390fd5b60011515600860008773ffffffffffffffffffffffffffffffffffffffff1673ffffffffffffffffffffffffffffffffffffffff16815260200190815260200160002060050160009054906101000a900460ff161515036116e5576040517f08c379a00000000000000000000000000000000000000000000000000000000081526004016116dc90613500565b60405180910390fd5b6040518060c001604052808673ffffffffffffffffffffffffffffffffffffffff168152602001858152602001848152602001838152602001600660008473ffffffffffffffffffffffffffffffffffffffff1673ffffffffffffffffffffffffffffffffffffffff168152602001908152602001600020600201805461176b90612c73565b80601f016020809104026020016040519081016040528092919081815260200182805461179790612c73565b80156117e45780601f106117b9576101008083540402835291602001916117e4565b820191906000526020600020905b8154815290600101906020018083116117c757829003601f168201915b5050505050815260200160011515815250600860008773ffffffffffffffffffffffffffffffffffffffff1673ffffffffffffffffffffffffffffffffffffffff16815260200190815260200160002060008201518160000160006101000a81548173ffffffffffffffffffffffffffffffffffffffff021916908373ffffffffffffffffffffffffffffffffffffffff160217905550602082015181600101556040820151816002015560608201518160030190805190602001906118ab9291906120b8565b5060808201518160040190816118c19190613006565b5060a08201518160050160006101000a81548160ff0219169083151502179055509050506009859080600181540180825580915050600190039060005260206000200160009091909190916101000a81548173ffffffffffffffffffffffffffffffffffffffff021916908373ffffffffffffffffffffffffffffffffffffffff160217905550611952858561103e565b505050505050565b600033905090565b600073ffffffffffffffffffffffffffffffffffffffff168373ffffffffffffffffffffffffffffffffffffffff16036119d1576040517f08c379a00000000000000000000000000000000000000000000000000000000081526004016119c890613592565b60405180910390fd5b600073ffffffffffffffffffffffffffffffffffffffff168273ffffffffffffffffffffffffffffffffffffffff1603611a40576040517f08c379a0000000000000000000000000000000000000000000000000000000008152600401611a3790613624565b60405180910390fd5b80600160008573ffffffffffffffffffffffffffffffffffffffff1673ffffffffffffffffffffffffffffffffffffffff16815260200190815260200160002060008473ffffffffffffffffffffffffffffffffffffffff1673ffffffffffffffffffffffffffffffffffffffff168152602001908152602001600020819055508173ffffffffffffffffffffffffffffffffffffffff168373ffffffffffffffffffffffffffffffffffffffff167f8c5be1e5ebec7d5bd14f71427d1e84f3dd0314c0f7b2291e5b200ac8c7c3b92583604051611b1e919061242a565b60405180910390a3505050565b6000611b378484611458565b90507fffffffffffffffffffffffffffffffffffffffffffffffffffffffffffffffff8114611bb15781811015611ba3576040517f08c379a0000000000000000000000000000000000000000000000000000000008152600401611b9a90613690565b60405180910390fd5b611bb08484848403611962565b5b50505050565b600073ffffffffffffffffffffffffffffffffffffffff168373ffffffffffffffffffffffffffffffffffffffff1603611c26576040517f08c379a0000000000000000000000000000000000000000000000000000000008152600401611c1d90613722565b60405180910390fd5b600073ffffffffffffffffffffffffffffffffffffffff168273ffffffffffffffffffffffffffffffffffffffff1603611c95576040517f08c379a0000000000000000000000000000000000000000000000000000000008152600401611c8c906137b4565b60405180910390fd5b611ca0838383611f71565b60008060008573ffffffffffffffffffffffffffffffffffffffff1673ffffffffffffffffffffffffffffffffffffffff16815260200190815260200160002054905081811015611d26576040517f08c379a0000000000000000000000000000000000000000000000000000000008152600401611d1d90613846565b60405180910390fd5b8181036000808673ffffffffffffffffffffffffffffffffffffffff1673ffffffffffffffffffffffffffffffffffffffff16815260200190815260200160002081905550816000808573ffffffffffffffffffffffffffffffffffffffff1673ffffffffffffffffffffffffffffffffffffffff168152602001908152602001600020600082825401925050819055508273ffffffffffffffffffffffffffffffffffffffff168473ffffffffffffffffffffffffffffffffffffffff167fddf252ad1be2c89b69c2b068fc378daa952ba7f163c4a11628f55a4df523b3ef84604051611e14919061242a565b60405180910390a3611e27848484612020565b50505050565b611e3561195a565b73ffffffffffffffffffffffffffffffffffffffff16611e53610f0b565b73ffffffffffffffffffffffffffffffffffffffff1614611ea9576040517f08c379a0000000000000000000000000000000000000000000000000000000008152600401611ea0906138b2565b60405180910390fd5b565b6000600560009054906101000a900473ffffffffffffffffffffffffffffffffffffffff16905081600560006101000a81548173ffffffffffffffffffffffffffffffffffffffff021916908373ffffffffffffffffffffffffffffffffffffffff1602179055508173ffffffffffffffffffffffffffffffffffffffff168173ffffffffffffffffffffffffffffffffffffffff167f8be0079c531659141344cd1fd0a4f28419497f9722a3daafe3b4186f6b6457e060405160405180910390a35050565b611f7c838383612025565b600073ffffffffffffffffffffffffffffffffffffffff168373ffffffffffffffffffffffffffffffffffffffff161461201b576000611fbb84611061565b90506000611fc885610eaf565b9050828282611fd791906132a4565b1015612018576040517f08c379a000000000000000000000000000000000000000000000000000000000815260040161200f90613944565b60405180910390fd5b50505b505050565b505050565b505050565b6040518060800160405280600073ffffffffffffffffffffffffffffffffffffffff16815260200160008152602001606081526020016000151581525090565b6040518060c00160405280600073ffffffffffffffffffffffffffffffffffffffff168152602001600081526020016000815260200160608152602001606081526020016000151581525090565b8280548282559060005260206000209081019282156120f4579160200282015b828111156120f35782518255916020019190600101906120d8565b5b5090506121019190612105565b5090565b5b8082111561211e576000816000905550600101612106565b5090565b600081519050919050565b600082825260208201905092915050565b60005b8381101561215c578082015181840152602081019050612141565b60008484015250505050565b6000601f19601f8301169050919050565b600061218482612122565b61218e818561212d565b935061219e81856020860161213e565b6121a781612168565b840191505092915050565b600060208201905081810360008301526121cc8184612179565b905092915050565b6000604051905090565b600080fd5b600080fd5b600073ffffffffffffffffffffffffffffffffffffffff82169050919050565b6000612213826121e8565b9050919050565b61222381612208565b811461222e57600080fd5b50565b6000813590506122408161221a565b92915050565b6000819050919050565b61225981612246565b811461226457600080fd5b50565b60008135905061227681612250565b92915050565b60008060408385031215612293576122926121de565b5b60006122a185828601612231565b92505060206122b285828601612267565b9150509250929050565b60008115159050919050565b6122d1816122bc565b82525050565b60006020820190506122ec60008301846122c8565b92915050565b600060208284031215612308576123076121de565b5b600061231684828501612231565b91505092915050565b61232881612208565b82525050565b61233781612246565b82525050565b600082825260208201905092915050565b600061235982612122565b612363818561233d565b935061237381856020860161213e565b61237c81612168565b840191505092915050565b612390816122bc565b82525050565b60006080830160008301516123ae600086018261231f565b5060208301516123c1602086018261232e565b50604083015184820360408601526123d9828261234e565b91505060608301516123ee6060860182612387565b508091505092915050565b600060208201905081810360008301526124138184612396565b905092915050565b61242481612246565b82525050565b600060208201905061243f600083018461241b565b92915050565b60008060006060848603121561245e5761245d6121de565b5b600061246c86828701612231565b935050602061247d86828701612231565b925050604061248e86828701612267565b9150509250925092565b600060ff82169050919050565b6124ae81612498565b82525050565b60006020820190506124c960008301846124a5565b92915050565b600080fd5b600080fd5b7f4e487b7100000000000000000000000000000000000000000000000000000000600052604160045260246000fd5b61251182612168565b810181811067ffffffffffffffff821117156125305761252f6124d9565b5b80604052505050565b60006125436121d4565b905061254f8282612508565b919050565b600067ffffffffffffffff82111561256f5761256e6124d9565b5b61257882612168565b9050602081019050919050565b82818337600083830152505050565b60006125a76125a284612554565b612539565b9050828152602081018484840111156125c3576125c26124d4565b5b6125ce848285612585565b509392505050565b600082601f8301126125eb576125ea6124cf565b5b81356125fb848260208601612594565b91505092915050565b60008060006060848603121561261d5761261c6121de565b5b600061262b86828701612231565b935050602061263c86828701612267565b925050604084013567ffffffffffffffff81111561265d5761265c6121e3565b5b612669868287016125d6565b9150509250925092565b600081519050919050565b600082825260208201905092915050565b6000819050602082019050919050565b600081519050919050565b600082825260208201905092915050565b6000819050602082019050919050565b60006126d7838361232e565b60208301905092915050565b6000602082019050919050565b60006126fb8261269f565b61270581856126aa565b9350612710836126bb565b8060005b8381101561274157815161272888826126cb565b9750612733836126e3565b925050600181019050612714565b5085935050505092915050565b600060c083016000830151612766600086018261231f565b506020830151612779602086018261232e565b50604083015161278c604086018261232e565b50606083015184820360608601526127a482826126f0565b915050608083015184820360808601526127be828261234e565b91505060a08301516127d360a0860182612387565b508091505092915050565b60006127ea838361274e565b905092915050565b6000602082019050919050565b600061280a82612673565b612814818561267e565b9350836020820285016128268561268f565b8060005b85811015612862578484038952815161284385826127de565b945061284e836127f2565b925060208a0199505060018101905061282a565b50829750879550505050505092915050565b6000602082019050818103600083015261288e81846127ff565b905092915050565b600081519050919050565b600082825260208201905092915050565b6000819050602082019050919050565b60006080830160008301516128da600086018261231f565b5060208301516128ed602086018261232e565b5060408301518482036040860152612905828261234e565b915050606083015161291a6060860182612387565b508091505092915050565b600061293183836128c2565b905092915050565b6000602082019050919050565b600061295182612896565b61295b81856128a1565b93508360208202850161296d856128b2565b8060005b858110156129a9578484038952815161298a8582612925565b945061299583612939565b925060208a01995050600181019050612971565b50829750879550505050505092915050565b600060208201905081810360008301526129d58184612946565b905092915050565b6129e681612208565b82525050565b6000602082019050612a0160008301846129dd565b92915050565b600060c083016000830151612a1f600086018261231f565b506020830151612a32602086018261232e565b506040830151612a45604086018261232e565b5060608301518482036060860152612a5d82826126f0565b91505060808301518482036080860152612a77828261234e565b91505060a0830151612a8c60a0860182612387565b508091505092915050565b60006020820190508181036000830152612ab18184612a07565b905092915050565b60008060408385031215612ad057612acf6121de565b5b6000612ade85828601612231565b9250506020612aef85828601612231565b9150509250929050565b600067ffffffffffffffff821115612b1457612b136124d9565b5b602082029050602081019050919050565b600080fd5b6000612b3d612b3884612af9565b612539565b90508083825260208201905060208402830185811115612b6057612b5f612b25565b5b835b81811015612b895780612b758882612267565b845260208401935050602081019050612b62565b5050509392505050565b600082601f830112612ba857612ba76124cf565b5b8135612bb8848260208601612b2a565b91505092915050565b60008060008060808587031215612bdb57612bda6121de565b5b6000612be987828801612231565b9450506020612bfa87828801612267565b9350506040612c0b87828801612267565b925050606085013567ffffffffffffffff811115612c2c57612c2b6121e3565b5b612c3887828801612b93565b91505092959194509250565b7f4e487b7100000000000000000000000000000000000000000000000000000000600052602260045260246000fd5b60006002820490506001821680612c8b57607f821691505b602082108103612c9e57612c9d612c44565b5b50919050565b7f48434c3a206163636f756e742066726f6d20746865207a65726f20616464726560008201527f7373000000000000000000000000000000000000000000000000000000000000602082015250565b6000612d0060228361212d565b9150612d0b82612ca4565b604082019050919050565b60006020820190508181036000830152612d2f81612cf3565b9050919050565b7f48434c3a20616c6c6f636174696f6e20616d6f756e742065786365656473206260008201527f616c616e63650000000000000000000000000000000000000000000000000000602082015250565b6000612d9260268361212d565b9150612d9d82612d36565b604082019050919050565b60006020820190508181036000830152612dc181612d85565b9050919050565b7f48434c3a20616c7265616479207265676973746572656420616c6c6f6361746960008201527f6f6e206164647265737300000000000000000000000000000000000000000000602082015250565b6000612e24602a8361212d565b9150612e2f82612dc8565b604082019050919050565b60006020820190508181036000830152612e5381612e17565b9050919050565b60008190508160005260206000209050919050565b60006020601f8301049050919050565b600082821b905092915050565b600060088302612ebc7fffffffffffffffffffffffffffffffffffffffffffffffffffffffffffffffff82612e7f565b612ec68683612e7f565b95508019841693508086168417925050509392505050565b6000819050919050565b6000612f03612efe612ef984612246565b612ede565b612246565b9050919050565b6000819050919050565b612f1d83612ee8565b612f31612f2982612f0a565b848454612e8c565b825550505050565b600090565b612f46612f39565b612f51818484612f14565b505050565b5b81811015612f7557612f6a600082612f3e565b600181019050612f57565b5050565b601f821115612fba57612f8b81612e5a565b612f9484612e6f565b81016020851015612fa3578190505b612fb7612faf85612e6f565b830182612f56565b50505b505050565b600082821c905092915050565b6000612fdd60001984600802612fbf565b1980831691505092915050565b6000612ff68383612fcc565b9150826002028217905092915050565b61300f82612122565b67ffffffffffffffff811115613028576130276124d9565b5b6130328254612c73565b61303d828285612f79565b600060209050601f831160018114613070576000841561305e578287015190505b6130688582612fea565b8655506130d0565b601f19841661307e86612e5a565b60005b828110156130a657848901518255600182019150602085019450602081019050613081565b868310156130c357848901516130bf601f891682612fcc565b8355505b6001600288020188555050505b505050505050565b7f4e487b7100000000000000000000000000000000000000000000000000000000600052601160045260246000fd5b600061311282612246565b915061311d83612246565b9250828201905080821115613135576131346130d8565b5b92915050565b7f4e487b7100000000000000000000000000000000000000000000000000000000600052603260045260246000fd5b600061317582612246565b91507fffffffffffffffffffffffffffffffffffffffffffffffffffffffffffffffff82036131a7576131a66130d8565b5b600182019050919050565b7f45524332303a2064656372656173656420616c6c6f77616e63652062656c6f7760008201527f207a65726f000000000000000000000000000000000000000000000000000000602082015250565b600061320e60258361212d565b9150613219826131b2565b604082019050919050565b6000602082019050818103600083015261323d81613201565b9050919050565b7f4e487b7100000000000000000000000000000000000000000000000000000000600052601260045260246000fd5b600061327e82612246565b915061328983612246565b92508261329957613298613244565b5b828204905092915050565b60006132af82612246565b91506132ba83612246565b92508282039050818111156132d2576132d16130d8565b5b92915050565b7f4f776e61626c653a206e6577206f776e657220697320746865207a65726f206160008201527f6464726573730000000000000000000000000000000000000000000000000000602082015250565b600061333460268361212d565b915061333f826132d8565b604082019050919050565b6000602082019050818103600083015261336381613327565b9050919050565b7f48434c3a2061646472657373206973206e6f742072656769737465726564206960008201527f6e20616c6c6f636174696f6e2000000000000000000000000000000000000000602082015250565b60006133c6602d8361212d565b91506133d18261336a565b604082019050919050565b600060208201905081810360008301526133f5816133b9565b9050919050565b7f48434c3a2076657374696e6720616d6f756e7420657863656564732062616c6160008201527f6e63650000000000000000000000000000000000000000000000000000000000602082015250565b600061345860238361212d565b9150613463826133fc565b604082019050919050565b600060208201905081810360008301526134878161344b565b9050919050565b7f48434c3a20616c7265616479207265676973746572656420696e20766573746960008201527f6e67000000000000000000000000000000000000000000000000000000000000602082015250565b60006134ea60228361212d565b91506134f58261348e565b604082019050919050565b60006020820190508181036000830152613519816134dd565b9050919050565b7f45524332303a20617070726f76652066726f6d20746865207a65726f2061646460008201527f7265737300000000000000000000000000000000000000000000000000000000602082015250565b600061357c60248361212d565b915061358782613520565b604082019050919050565b600060208201905081810360008301526135ab8161356f565b9050919050565b7f45524332303a20617070726f766520746f20746865207a65726f20616464726560008201527f7373000000000000000000000000000000000000000000000000000000000000602082015250565b600061360e60228361212d565b9150613619826135b2565b604082019050919050565b6000602082019050818103600083015261363d81613601565b9050919050565b7f45524332303a20696e73756666696369656e7420616c6c6f77616e6365000000600082015250565b600061367a601d8361212d565b915061368582613644565b602082019050919050565b600060208201905081810360008301526136a98161366d565b9050919050565b7f45524332303a207472616e736665722066726f6d20746865207a65726f20616460008201527f6472657373000000000000000000000000000000000000000000000000000000602082015250565b600061370c60258361212d565b9150613717826136b0565b604082019050919050565b6000602082019050818103600083015261373b816136ff565b9050919050565b7f45524332303a207472616e7366657220746f20746865207a65726f206164647260008201527f6573730000000000000000000000000000000000000000000000000000000000602082015250565b600061379e60238361212d565b91506137a982613742565b604082019050919050565b600060208201905081810360008301526137cd81613791565b9050919050565b7f45524332303a207472616e7366657220616d6f756e742065786365656473206260008201527f616c616e63650000000000000000000000000000000000000000000000000000602082015250565b600061383060268361212d565b915061383b826137d4565b604082019050919050565b6000602082019050818103600083015261385f81613823565b9050919050565b7f4f776e61626c653a2063616c6c6572206973206e6f7420746865206f776e6572600082015250565b600061389c60208361212d565b91506138a782613866565b602082019050919050565b600060208201905081810360008301526138cb8161388f565b9050919050565b7f48434c3a205472616e7366657220616d6f756e74206578656564732062616c6160008201527f6e6365206f7220736f6d6520616d6f756e747320617265206c6f636b65642e00602082015250565b600061392e603f8361212d565b9150613939826138d2565b604082019050919050565b6000602082019050818103600083015261395d81613921565b905091905056fea26469706673582212205425e56033cbde0d3ad80e2825850e09fb46e59974b43257a95e4de28ca522ab64736f6c63430008130033",
  "immutableReferences": {},
  "source": "// SPDX-License-Identifier: MIT\r\npragma solidity ^0.8.0;\r\n\r\nimport \"@openzeppelin/contracts/token/ERC20/ERC20.sol\";\r\nimport \"@openzeppelin/contracts/access/Ownable.sol\";\r\n\r\ncontract HCL is ERC20, Ownable {\r\n\t\r\n\t/**\r\n\t* @dev Total Supply\r\n\t*/ \r\n\tuint256 private constant TOTAL_SUPPLY = 2500000000;\r\n\r\n\t/**\r\n\t* @dev Constructor\r\n\t*/ \r\n\tconstructor() ERC20('Hiwkcircle', 'HCL') \r\n\t{\r\n\t\t_mint(_msgSender(), TOTAL_SUPPLY*10**decimals());\r\n\t}\r\n\r\n\t/**\r\n\t* @dev Allocation Struct\r\n\t*/ \r\n\tstruct Allocation\r\n\t{\r\n\t\taddress account;\r\n\t\tuint256 amount;\r\n\t\tstring role;\r\n\t\tbool isSet;\r\n\t}\r\n\t\r\n\t/**\r\n\t* @dev List of Registered allocation\r\n\t*/ \r\n\tmapping(address => Allocation) private _allocations;\r\n\r\n\t/**\r\n\t* @dev Array of Registerd allocation address\r\n\t*/ \r\n\taddress[] private _allocationAddresses;\r\n\t\r\n\t/**\r\n\t* @dev Set Allocation\r\n\t* @param account The address to be allocated\r\n\t* @param amount The amount to be allocated\r\n\t* @param role The role to be allocated\r\n\t*/\r\n\tfunction setAllocation(address account, uint256 amount, string memory role) external onlyOwner\r\n\t{\r\n\t\trequire(account != address(0), \"HCL: account from the zero address\");\r\n\t\t\r\n\t\taddress owner = _msgSender();\r\n\t\t\r\n\t\trequire(balanceOf(owner) >= amount, \"HCL: allocation amount exceeds balance\");\r\n\t\trequire(_allocations[account].isSet != true, \"HCL: already registered allocation address\");\r\n\t\t\r\n\t\t_allocations[account] = Allocation(account, amount, role, true);\r\n\t\t_allocationAddresses.push(account);\r\n\r\n\t\ttransfer(account, amount);\r\n\t}\r\n\r\n\t/**\r\n\t * @dev Returns the allocation information by 'account'\r\n\t */\r\n\tfunction getAllocation(address account) public view returns(Allocation memory)\r\n\t{\r\n\t\treturn _allocations[account];\r\n\t}\r\n\r\n\t/**\r\n\t * @dev Returns all of allocation information\r\n\t */\r\n\tfunction getAllocations() public view returns(Allocation[] memory)\r\n\t{\r\n\t\tAllocation[] memory allocations = new Allocation[](_allocationAddresses.length);\r\n\t\t\r\n\t\tfor (uint i = 0; i < _allocationAddresses.length; i++) \r\n\t\t{\r\n\t\t\taddress addr = _allocationAddresses[i];\r\n\t\t\tAllocation storage allocation = _allocations[addr];\r\n\t\t\tallocations[i] = allocation;\r\n\t\t}\r\n\r\n\t\treturn allocations;\r\n\t}\r\n\r\n\t/**\r\n\t* @dev Vesting Struct\r\n\t*/ \r\n\tstruct Vesting\r\n\t{\r\n\t\taddress account;\r\n\t\tuint256 amount;\r\n\t\tuint256 start;\r\n\t\tuint256[] timelock;\r\n\t\tstring role;\r\n\t\tbool isSet;\r\n\t}\r\n\t\r\n\t/**\r\n\t * @dev List of Registered vesting\r\n\t */ \r\n\tmapping(address => Vesting) private _vestings;\r\n\r\n\t/**\r\n\t * @dev Array of Registerd vesting address\r\n\t */ \r\n\taddress[] private _vestingAddresses;\r\n\r\n\t/**\r\n\t * @dev Set Vesting\r\n\t * @param account The address to be vested\r\n\t * @param amount The amount to be vested\r\n\t * @param start The start date(timestamp) to be vested\r\n\t * @param timelock The timelock timestamp\r\n\t */\r\n\tfunction setVesting(address account, uint256 amount, uint256 start, uint256[] memory timelock) public\r\n\t{\r\n\t\taddress owner = _msgSender();\r\n\t\t\r\n\t\t/**\r\n\t\t* @dev Only addresses registered in '_allocation' are permitted to execute.\r\n\t\t*/\r\n\t\trequire(_allocations[owner].isSet == true, \"HCL: address is not registered in allocation \");\r\n\t\trequire(balanceOf(owner) >= amount, \"HCL: vesting amount exceeds balance\");\r\n\t\t\r\n\t\trequire(_vestings[account].isSet != true, \"HCL: already registered in vesting\");\r\n\r\n\t\t_vestings[account] = Vesting(account, amount, start, timelock, _allocations[owner].role, true);\r\n\t\t_vestingAddresses.push(account);\r\n\r\n\t\ttransfer(account, amount);\r\n\t}\r\n\r\n\t/**\r\n\t * @dev Returns the vesting information by 'account'\r\n\t */\r\n\tfunction getVesting(address account) public view returns(Vesting memory)\r\n\t{\r\n\t\treturn _vestings[account];\r\n\t}\r\n\r\n\t/**\r\n\t * @dev Returns all of vesting information\r\n\t */\r\n\tfunction getVestings() public view returns(Vesting[] memory)\r\n\t{\r\n\t\tVesting[] memory vestings = new Vesting[](_vestingAddresses.length);\r\n\t\t\r\n\t\tfor (uint i = 0; i < _vestingAddresses.length; i++) \r\n\t\t{\r\n\t\t\taddress addr = _vestingAddresses[i];\r\n\t\t\tVesting storage vesting = _vestings[addr];\r\n\t\t\tvestings[i] = vesting;\r\n\t\t}\r\n\r\n\t\treturn vestings;\r\n\t}\r\n\r\n\t/**\r\n\t* @dev Get the amount of locked tokens \r\n\t* @param account address\r\n\t* @return lockedToken Amount of locked tokens\r\n\t*/\r\n\tfunction getLockedBalance(address account) public view returns (uint256) \r\n\t{\r\n\t\tif(_vestings[account].isSet != true)\r\n\t\t{\r\n\t\t\treturn 0;\r\n\t\t}\r\n\t\t\r\n\t\tuint256 per = _vestings[account].amount / _vestings[account].timelock.length;\r\n\t\tuint256 unlocked = 0;\r\n\t\t\r\n\t\tfor (uint i = 0; i < _vestings[account].timelock.length; i++) \r\n\t\t{\r\n\t\t\tif(_vestings[account].timelock[i] < block.timestamp)\r\n\t\t\t{\r\n\t\t\t\tunlocked += per;\r\n\t\t\t}\r\n\t\t}\r\n\t\t\r\n\t\treturn _vestings[account].amount - unlocked;\r\n\t}\r\n\t\r\n\t/**\r\n\t* @dev _beforeTokenTransfer\r\n\t* @param from from address\r\n\t* @param to to address\r\n\t* @param amount amount\r\n\t*/\r\n\tfunction _beforeTokenTransfer(address from, address to, uint256 amount) internal override \r\n\t{\r\n\t\tsuper._beforeTokenTransfer(from, to, amount);\r\n\t\t\r\n\t\t// Skip mint\r\n\t\tif (from != address(0)) {\r\n\t\t\tuint256 locked = getLockedBalance(from);\r\n\t\t\tuint256 accountBalance = balanceOf(from);\r\n\t\t\trequire(accountBalance - locked >= amount, \"HCL: Transfer amount exeeds balance or some amounts are locked.\");\r\n\t\t}\r\n\t}\r\n}",
  "sourcePath": "E:\\Clients\\2023\\test-token\\contracts\\HCL.sol",
  "compiler": {
    "name": "solc",
    "version": "0.8.19+commit.7dd6d404.Emscripten.clang"
  },
  "schemaVersion": "3.4.13",
  "updatedAt": "2023-05-18T07:15:28.137Z",
  "devdoc": {
    "events": {
      "Approval(address,address,uint256)": {
        "details": "Emitted when the allowance of a `spender` for an `owner` is set by a call to {approve}. `value` is the new allowance."
      },
      "Transfer(address,address,uint256)": {
        "details": "Emitted when `value` tokens are moved from one account (`from`) to another (`to`). Note that `value` may be zero."
      }
    },
    "kind": "dev",
    "methods": {
      "allowance(address,address)": {
        "details": "See {IERC20-allowance}."
      },
      "approve(address,uint256)": {
        "details": "See {IERC20-approve}. NOTE: If `amount` is the maximum `uint256`, the allowance is not updated on `transferFrom`. This is semantically equivalent to an infinite approval. Requirements: - `spender` cannot be the zero address."
      },
      "balanceOf(address)": {
        "details": "See {IERC20-balanceOf}."
      },
      "constructor": {
        "details": "Constructor"
      },
      "decimals()": {
        "details": "Returns the number of decimals used to get its user representation. For example, if `decimals` equals `2`, a balance of `505` tokens should be displayed to a user as `5.05` (`505 / 10 ** 2`). Tokens usually opt for a value of 18, imitating the relationship between Ether and Wei. This is the value {ERC20} uses, unless this function is overridden; NOTE: This information is only used for _display_ purposes: it in no way affects any of the arithmetic of the contract, including {IERC20-balanceOf} and {IERC20-transfer}."
      },
      "decreaseAllowance(address,uint256)": {
        "details": "Atomically decreases the allowance granted to `spender` by the caller. This is an alternative to {approve} that can be used as a mitigation for problems described in {IERC20-approve}. Emits an {Approval} event indicating the updated allowance. Requirements: - `spender` cannot be the zero address. - `spender` must have allowance for the caller of at least `subtractedValue`."
      },
      "getAllocation(address)": {
        "details": "Returns the allocation information by 'account'"
      },
      "getAllocations()": {
        "details": "Returns all of allocation information"
      },
      "getLockedBalance(address)": {
        "details": "Get the amount of locked tokens ",
        "params": {
          "account": "address"
        },
        "returns": {
          "_0": "lockedToken Amount of locked tokens"
        }
      },
      "getVesting(address)": {
        "details": "Returns the vesting information by 'account'"
      },
      "getVestings()": {
        "details": "Returns all of vesting information"
      },
      "increaseAllowance(address,uint256)": {
        "details": "Atomically increases the allowance granted to `spender` by the caller. This is an alternative to {approve} that can be used as a mitigation for problems described in {IERC20-approve}. Emits an {Approval} event indicating the updated allowance. Requirements: - `spender` cannot be the zero address."
      },
      "name()": {
        "details": "Returns the name of the token."
      },
      "owner()": {
        "details": "Returns the address of the current owner."
      },
      "renounceOwnership()": {
        "details": "Leaves the contract without owner. It will not be possible to call `onlyOwner` functions anymore. Can only be called by the current owner. NOTE: Renouncing ownership will leave the contract without an owner, thereby removing any functionality that is only available to the owner."
      },
      "setAllocation(address,uint256,string)": {
        "details": "Set Allocation",
        "params": {
          "account": "The address to be allocated",
          "amount": "The amount to be allocated",
          "role": "The role to be allocated"
        }
      },
      "setVesting(address,uint256,uint256,uint256[])": {
        "details": "Set Vesting",
        "params": {
          "account": "The address to be vested",
          "amount": "The amount to be vested",
          "start": "The start date(timestamp) to be vested",
          "timelock": "The timelock timestamp"
        }
      },
      "symbol()": {
        "details": "Returns the symbol of the token, usually a shorter version of the name."
      },
      "totalSupply()": {
        "details": "See {IERC20-totalSupply}."
      },
      "transfer(address,uint256)": {
        "details": "See {IERC20-transfer}. Requirements: - `to` cannot be the zero address. - the caller must have a balance of at least `amount`."
      },
      "transferFrom(address,address,uint256)": {
        "details": "See {IERC20-transferFrom}. Emits an {Approval} event indicating the updated allowance. This is not required by the EIP. See the note at the beginning of {ERC20}. NOTE: Does not update the allowance if the current allowance is the maximum `uint256`. Requirements: - `from` and `to` cannot be the zero address. - `from` must have a balance of at least `amount`. - the caller must have allowance for ``from``'s tokens of at least `amount`."
      },
      "transferOwnership(address)": {
        "details": "Transfers ownership of the contract to a new account (`newOwner`). Can only be called by the current owner."
      }
    },
    "stateVariables": {
      "TOTAL_SUPPLY": {
        "details": "Total Supply"
      },
      "_allocationAddresses": {
        "details": "Array of Registerd allocation address"
      },
      "_allocations": {
        "details": "List of Registered allocation"
      },
      "_vestingAddresses": {
        "details": "Array of Registerd vesting address"
      },
      "_vestings": {
        "details": "List of Registered vesting"
      }
    },
    "version": 1
  },
  "userdoc": {
    "kind": "user",
    "methods": {},
    "version": 1
  }
}